:020000040800F2
:1020000000500020556F00089D6F00089D6F00086C
:102010009D6F00089D6F00089D6F00080000000084
:102020000000000000000000000000009D6F00089C
:102030009D6F0008000000009D6F00084F640008BD
:102040009D6F00089D6F00089D6F00089D6F000840
:102050009D6F00089D6F00083D65000843650008FE
:10206000496500084F650008556500089D6F000828
:102070009D6F00089D6F00089D6F00089D6F000810
:102080009D6F00089D6F00089D6F0008893400084F
:102090007D3400089D6F00089D6F00085B65000897
:1020A0009D6F0008D55700089D6F0008E95700088C
:1020B000ED57000801580008155800089D6F0008EA
:1020C0009D6F00089D6F00089D6F00089D6F0008C0
:1020D0009D6F0008116E0008296E0008456E00080B
:1020E000836500089D6F00088D3400080000000023
:1020F00000000000000000000000000000000000E0
:0C21000000000000000000005FF808F183
:10210C00034613F8012B002AFBD1181A013870472B
:10211C0010B5054C237833B9044B13B10448AFF315
:10212C0000800123237010BD8001002000000000FE
:10213C006478000808B5034B1BB103490348AFF39F
:10214C00008008BD000000008401002064780008B5
:10215C0003680A465B680021184703680A465B68F7
:10216C000121184703680A465B68022118470000E2
:10217C0030B591B00D46144600214022684605F05A
:10218C0087FA02234022694605488DF800308DF805
:10219C0001508DF8024000F07CFC11B030BD00BF46
:1021AC000803002030B511290D46144691B014D106
:1021BC0080F8542190F85431A3B190F855318BB17B
:1021CC00BFF34F8F1149124BCA6802F4E0621343FC
:1021DC00CB60BFF34F8F00BFFDE7122908BF80F81B
:1021EC005521E7E740220021684605F051FA01230A
:1021FC004022694607488DF800308DF801508DF863
:10220C00024000F046FC11B030BD00BF00ED00E014
:10221C000400FA0508030020F8B50D4616460446DE
:10222C001F460221284604F0B5FE0221304604F078
:10223C00B1FE069B2846C4E90037C4E9025604F0F7
:10224C0041FF003818BF01202074F8BD2DE9F04182
:10225C000446806804F036FF071E18BF01270546A8
:10226C00E06804F02FFF237C0646BB4213D004F039
:10227C0067FF6369C31A012B0DD92774606155B1CF
:10228C00002E6368206808BF4FF0FF31BDE8F041B5
:10229C0018BF01211847BDE8F0810000F7B50446CE
:1022AC0004253E4F57F8046B0121304604F072FEB2
:1022BC00013D0121304604F0CBFE15F0FF05F1D1B4
:1022CC000525374E022156F8040B013D04F062FE41
:1022DC0015F0FF05F6D1009404F1A4001322C721D8
:1022EC00304BFFF799FF009404F1BC00C622122179
:1022FC002D4BFFF791FF11222C4B009404F1D400CD
:10230C00C521FFF789FF01210E2004F043FE294669
:10231C000E2004F09DFE0121032004F03BFE012160
:10232C00022004F037FE0121084604F033FE01219F
:10233C00032004F08DFE0121022004F089FE01210E
:10234C001B4C084604F084FE6368012123F0F00363
:10235C0063606368102043F0300363604FF40073D4
:10236C00636104F017FE0121102004F071FE636814
:10237C00012123F47043636063680F2043F44053DE
:10238C0063604FF40063636104F004FE01210F20CD
:10239C0003B0BDE8F04004F05BBE00BFF07800086D
:1023AC00DC7800085D210008672100087121000815
:1023BC00000C0140D0F8F03010B58B420C4617D011
:1023CC00C0F8F010C1F38001012081F0010104F08C
:1023DC003FFEC4F34001032081F0010104F038FEFC
:1023EC00E143BDE81040022001F0010104F030BED1
:1023FC0010BD30B5012400F1F40300F5867253F8DA
:10240C00045FA94205D090F8F55019600DB180F821
:10241C00F4409342F3D130BD30B5012400F58873FC
:10242C0000F5A87253F8045FA94205D090F8115139
:10243C0019600DB180F810419342F3D130BD00000A
:10244C002DE9F74F044604F07BFE00258046DFF8AB
:10245C009090DFF890A0DFF890B059F8043B002181
:10246C001846009304F0F4FD204ADBF80030DAF84B
:10247C000410B3FBF2F30A225343DAF80420521A85
:10248C009342FADC14231A4F1A4E03FB057757F8C4
:10249C00041B56F8040B019104F014FEB0FA80F200
:1024AC000199520904EBC100037993420BD0836864
:1024BC00A8EB0303042B06D923680271C0F808802B
:1024CC001B68204698470C4B9E42E0D10121009896
:1024DC00013504F0BDFD042DBFD103B0BDE8F08F74
:1024EC00F0780008001000E02801002040420F00A6
:1024FC008C780008DC780008F078000801220823AA
:10250C0010B502FA01F410318A40624910F0800FC4
:10251C00C1F8104C60D000BF00BF00BF00BF00BFAF
:10252C0000BF00BF00BF00BF00BF00BF00BF00BFA7
:10253C0000BF00BF00BF00BF00BF00BF00BF00BF97
:10254C0000BF00BF00BF00BF00BF00BF00BF00BF87
:10255C0000BF00BF00BF00BF00BF00BF00BF00BF77
:10256C0000BF00BF00BF00BF00BF00BF00BF00BF67
:10257C0000BF00BF00BF00BF00BF00BF00BF00BF57
:10258C0000BF00BFC1F8102C00BF00BF00BF00BFD0
:10259C0000BF00BF00BF00BF00BF00BF00BF00BF37
:1025AC0000BF00BF00BF00BF00BF00BF00BF00BF27
:1025BC0000BF00BF00BF00BF00BF00BF00BF00BF17
:1025CC0000BF00BF00BF00BF00BF013B400013F0C5
:1025DC00FF03C0B29AD110BD00BF00BF00BF00BF47
:1025EC0000BF00BF00BF00BF00BF00BF00BF00BFE7
:1025FC0000BF00BF00BF00BF00BF00BF00BF00BFD7
:10260C0000BF00BF00BF00BF00BF00BFC1F8102C4F
:10261C0000BF00BF00BF00BF00BF00BF00BF00BFB6
:10262C0000BF00BF00BF00BF00BF00BF00BF00BFA6
:10263C0000BF00BF00BF00BF00BF00BF00BF00BF96
:10264C0000BF00BF00BF00BF00BF00BF00BF00BF86
:10265C0000BF00BF00BF00BF00BF00BF00BF00BF76
:10266C0000BF00BF00BF00BF00BF00BF00BF00BF66
:10267C0000BF00BF00BF00BF00BF00BF00BF00BF56
:10268C0000BF00BF00BF00BF00BF00BF00BF00BF46
:10269C009BE700BF0000014038B504460D46C0F36F
:1026AC000720FFF72BFF2946C4F30740FFF726FF4F
:1026BC002946E0B2FFF722FF38BD38B572B600F1FB
:1026CC00F40500F5867455F8040F0921FFF7E4FFB3
:1026DC00A542F8D162B638BD38B572B600F588752A
:1026EC0000F5A87455F8040F0B21FFF7D5FFA54290
:1026FC00F8D10B210020FFF7CFFF62B638BD90F860
:10270C00EC2010B58A4204461CD080F8EC100E2048
:10271C0004F09EFC94F8EC30A3B11E2004F012FDE2
:10272C0094F8F5302BB12046FFF7C7FF002384F84F
:10273C00F43094F811312BB12046FFF7CDFF002374
:10274C0084F8103110BD000008B54FF47A7004F015
:10275C00F9FC074800F094F90648FFF79FFD0121AA
:10276C000448FFF7CCFF04210248FFF723FE08BD05
:10277C0008030020A80100202DE9F04190B004F0DE
:10278C00DFFC964F05463E78954C002E48D0954A76
:10279C001368C31AB3F5967F09D3934B106019785D
:1027AC00204681F0010119708900FFF703FE8F4864
:1027BC00FFF74CFD8E48FFF749FD8E48FFF746FDAD
:1027CC008748FFF73DFE94F8F4302BB18448FFF7AF
:1027DC0074FF002384F8F43094F810312BB1804846
:1027EC00FFF77AFF002384F81031834800F066F974
:1027FC0098B140226946804800F06AF99DF80000C3
:10280C00122800F09B8041D8102870D0112800F0BD
:10281C00878001285BD002285FD010B0BDE8F08122
:10282C00764B1A88002AC2D0754B1B68C31A934288
:10283C00BDD94FF001083146204687F80080FFF7DC
:10284C00EBFD31462046FFF7D4FD94F8F5302BB163
:10285C004146102004F0FCFBA4F8F46094F811310C
:10286C0033B101210F2004F0F3FB0023A4F8103145
:10287C0001215B48FFF743FF5A4B042158481D6068
:10288C00FFF798FD0122584B1A7090E7212876D05B
:10289C00222800F082802028BFD19DF8015094F8A6
:1028AC0011312E1E18BF0126B342B6D0B5FA85F1F0
:1028BC000F20490904F0CCFB002384F8116184F843
:1028CC001031002DA9D04648FFF706FFA5E79DF86B
:1028DC0001104348FFF76EFD9FE7BDF80130474AF2
:1028EC005BBA138000233B70454B1D6095E79DF848
:1028FC00015094F8F5302E1E18BF0126B3428CD02F
:10290C00B5FA85F1490904F0A3FB002384F8F560BE
:10291C0084F8F430002D80D03148FFF7CEFE7CE7F0
:10292C009DF802309DF801209DF803101B0243EA2C
:10293C0002432B481943FFF75CFD6EE700216A4602
:10294C00084694F8F5602F4D937857781B0243EAAC
:10295C000743D77801303B4355F8047FBB4203D083
:10296C00002E18BF31462B60062802F10302EBD172
:10297C0000293FF452AF012384F8F4304DE79DF861
:10298C0002309DF801209DF803101B0243EA02431C
:10299C0013481943FFF740FD3FE700216B460846FB
:1029AC0094F81161184D9A785F78120242EA074246
:1029BC00DF7801303A4355F8047FBA4203D0002E39
:1029CC0018BF31462A60102803F10303EBD100290C
:1029DC003FF423AF012384F810311EE700000020E0
:1029EC00A8010020A4010020010000204C020020BE
:1029FC00640200207C02002008030020A0010020BB
:102A0C009C0100209C020020B802002038B51A4C12
:102A1C000025A0220021201D04F03AFE4FF0FF33C8
:102A2C001822294604F1F800C4E92B33C4E93133E8
:102A3C00C4E93733C4E92955C4E92D55C4E92F55E8
:102A4C00C4E93355C4E93555C4E93955C4E93B5596
:102A5C00C4F8F45004F01CFE4022294604F58A7098
:102A6C00C4F8105104F014FE044BC4E9565523600D
:102A7C00A4F8545138BD00BFA80100208478000888
:102A8C00037810B504461BB900F03EFF01232370F8
:102A9C0010BD03461B7810B50846144613B109B196
:102AAC00002A02DC0024204610BD402AA8BF402486
:102ABC00A1B200F049FF0028F4D1F4E7007808B582
:102ACC0028B100F049FF003818BF0120800108BD73
:102ADC0008B503461B78084633B121B1002A03DD43
:102AEC0091B200F03FFF08BD0020FCE70022014B33
:102AFC001A7070470803002078B10023C0F8B83270
:102B0C00C0F8C432C0F8D03209B1C0F8B4120123F5
:102B1C00027080F89C3200F0C9BC0320704700237F
:102B2C0013B50446ADF8063081B1CB6AC0F8B812C3
:102B3C0023B10DF106009847C4F8D0020020D4F858
:102B4C00D8320133C4F8D83202B010BD0320FBE7F1
:102B5C0000F0D8BCD0F8B8320BB11B681847184637
:102B6C00704708B5D0F8B8325B689847002818BF92
:102B7C00032008BD38B500F2AA250446284600F00B
:102B8C0060FB012394F8AA12C4F89432B4F8B03262
:102B9C00C4F8983201F01F03012B08D0022B0CD083
:102BAC008BB929462046BDE8384000F015B92946B6
:102BBC002046BDE8384000F073BA29462046BDE8EF
:102BCC00384000F09CBA2046BDE8384001F0800146
:102BDC0000F0B0BC70B50446164609BBD0F8943270
:102BEC00032B0CD1D0E9573293420AD99B1A9A4243
:102BFC0028BF1A463146C0F85C3100F07CFB00203F
:102C0C0070BD90F89C32032B06D1D0F8B8321B69FA
:102C1C0013B1C0F8D4129847204600F074FBEEE7CD
:102C2C0090F89C32032BEAD1D0F8B8329B69002B78
:102C3C00E5D0BDE870400022C0F8D422184770B52A
:102C4C00044616460D4600293DD1D0F89432022B8D
:102C5C000ED1D0E90732934212D99A1A3146C26189
:102C6C0000F034FB2B462A462946204600F08FFC08
:102C7C0094F8A03213B1002384F8A032002070BD68
:102C8C000CD18269934209D8D0F898329A4205D275
:102C9C000A4600F01BFBC4F89852E3E794F89C3208
:102CAC00032B08D1D4F8B832DB6823B100222046BC
:102CBC00C4F8D42298478021204600F03BFC2046E3
:102CCC0000F02CFBD4E790F89C32032BD6D1D0F833
:102CDC00B8325B69002BD1D0BDE870400022C0F83F
:102CEC00D4221847F8B50123002180F89C32D0F883
:102CFC00B8320446C0F894124160C0F8A41280F8AF
:102D0C00A012B3B90026002240250127114640230A
:102D1C00204600F0FEFB2B46002280212046A4F822
:102D2C006471C4F8605100F0F4FB3046A78425624E
:102D3C00F8BD5B68002BE5D098470028E2D003264D
:102D4C00E1E701740020704790F89C32042B1EBF01
:102D5C0090F89C32DBB280F89D32042380F89C32D0
:102D6C000020704790F89C32042B02BF90F89D32E3
:102D7C00DBB280F89C320020704708B590F89C229A
:102D8C00032A05D1D0F8B83213B1DB6903B19847E7
:102D9C00002008BD002070470020704710B5428805
:102DAC0003789A420AD904782044234444789BB28D
:102DBC00052CF6D184788C42F3D110BD0020FCE7B1
:102DCC0010B50446802100F0B5FB2046BDE810404C
:102DDC00002100F0AFBB000073B50B78044603F084
:102DEC006003202B0D4609D0402B07D093B1204611
:102DFC00FFF7E6FF0025284602B070BD29462046A5
:102E0C00D4F8D432AE3354F823309B6802B0BDE80A
:102E1C00704018474B78092BE9D801A252F823F0DF
:102E2C004B3000088F300008FB2D00087330000871
:102E3C00FB2D0008452F0008552E0008FB2D00081F
:102E4C001F300008872F000800234988ADF8063092
:102E5C000B0A013B062BCAD801A252F823F000BF83
:102E6C00892E0008BB2E0008D52E0008FB2D00086B
:102E7C00FB2D0008172F00082D2F0008D0F8B432B6
:102E8C001B68207C0DF106019847EA88002A00F0A7
:102E9C00A380BDF80630002BA9D09A4228BF1A4651
:102EAC000146ADF80620204600F003FAA2E7027CAA
:102EBC00D0F8B83232B99B6A0DF10600984702235C
:102ECC004370E2E7DB6AF7E7C9B2D0F8B432052900
:102EDC0012D8DFE801F00307090B0D0F5B68002B1C
:102EEC00CFD184E79B68FAE7DB68F8E71B69F6E764
:102EFC005B69F4E79B69F2E7DB69002B3FF477AF82
:102F0C000DF10602007C9847BFE7037C002B7FF491
:102F1C006EAFD0F8B8320DF106005B6B9847B4E792
:102F2C00037C002B7FF463AFD0F8B8320DF10600B0
:102F3C001B6B98470723C3E78B88002B7FF457AF95
:102F4C00CB88002B7FF453AF4D887F2D3FF64FAFCE
:102F5C0090F89C32032B3FF44AAFEDB2294680F82F
:102F6C009E5200F006FB204600F0CDF91DB1022365
:102F7C0084F89C323EE70123FAE78978474D012912
:102F8C00297003D9FFF71CFF032534E790F89C3216
:102F9C00022BDEB208D0032E17D0FFF711FF20460C
:102FAC002978FFF7DEFDEFE7B1B101214160FFF7B2
:102FBC00D1FD0546204625B1FFF702FF84F89C623F
:102FCC0019E700F0A0F90323D2E749B902234160C5
:102FDC0080F89C32FFF7C5FD204600F094F909E714
:102FEC0041680129F8D0C9B2FFF7BBFD297820460A
:102FFC006160FFF7AFFD05460028EDD02046FFF7D6
:10300C00DFFE20462179FFF7ACFD022384F89C32C9
:10301C00F1E6CA88012A7FF4EAAE90F89C120229E4
:10302C00CBB207D8002B3FF4E2AE0146002341F8A7
:10303C00083F38E7032B7FF4DAAE011D33E790F835
:10304C009C32013B022B3FF6D2AECA88022A7FF497
:10305C00CEAED0F8A4320146002B0CBF01230323C3
:10306C0041F80C3F1FE74B88012B02D1C4F8A43266
:10307C00B2E7022B7FF4BBAE8B881B0A80F8A03220
:10308C00AAE790F89C32013B022B3FF6B0AE4B887E
:10309C00012B7FF4AFAE0023E8E700BF090300204B
:1030AC0070B50B78044603F060025B060E4601D542
:1030BC00402A1FD194F89C32013B022B1AD831794B
:1030CC002046022917D8FFF765FE88B9D4F8B83224
:1030DC009B686BB1C4F8D40231462046984705462C
:1030EC00F3881BB915B9204600F00DF9284670BDC0
:1030FC000325F5E72046FFF763FE0025F6E770B5DC
:10310C000B78044603F06003202B0E468A880D7959
:10311C0057D0402B55D01BB12046FFF751FE3CE059
:10312C004B78012B3BD0032B24D0002BF4D190F8FF
:10313C009C32022BD9B260D00329EDD112F0800F52
:10314C004FF0140205F00F0302FB030366D09B8CB7
:10315C00002BE1D0142605F07F0303FB0666802DBF
:10316C00064467D02946204600F0F2F9002866D0C4
:10317C00012360E090F89C32022BDAB233D0032AA0
:10318C00CAD14B8833B9690604D0F38813B92946E0
:10319C0000F0D0F9204600F0B6F8002070BD90F891
:1031AC009C32022BDAB21ED0032AB5D14B88002BED
:1031BC00F3D16B0602D0294600F0C3F9204600F08B
:1031CC00A2F829462046FFF7E7FD0028E5D1D4F800
:1031DC00B832C4F8D4029B68002BDED031462046AE
:1031EC00BDE8704018476A0696D0294600F0A2F94F
:1031FC008021204600F09EF9CFE769068CD113069A
:10320C004FF000034FF002024CBF00F1140100F527
:10321C00AA710B60204600F04CF8BEE7B3F864319D
:10322C00002B3FF479AF142606FB050606F5AA76AB
:10323C00002D97D10023336002223146EAE730603B
:10324C00FAE70B7803704B7843704B8843808B887C
:10325C008380CB88C380704710B50446802100F072
:10326C0069F92046BDE81040002100F063B970B543
:10327C000D4616460446A0B1FEF742FFC0B201301F
:10328C0080284FEA40038CBF4FF480739BB233808D
:10329C002B70032300216B700223013C14F8012FC7
:1032AC0002B970BDEA545A1CD2B20233A954DBB233
:1032BC00F4E71346022210B5C0E90633C0F8942295
:1032CC000A46002100F05CF9002010BD08B5134639
:1032DC000A46002100F054F9002008BD13460322D1
:1032EC0010B5C0E95633C0F894220A46002100F00C
:1032FC004EF9002010BD08B513460A46002100F017
:10330C0046F9002008BD08B504220023C0F8942219
:10331C0019461A4600F034F9002008BD08B50522FC
:10332C000023C0F8942219461A4600F030F9002008
:10333C0008BD000037B5244B026804469A4240D1C0
:10334C00224D03E0A96803F0D5FA0C352868431C1C
:10335C00F8D11F4B0121DA69132042F40002DA6123
:10336C00DB69002203F400030193019B00F00AFCCB
:10337C00132000F037FC00220121142000F002FC85
:10338C00142000F02FFCA37A012B1AD14FF48022C9
:10339C00104B2A205A61DA6822F48022DA609A688B
:1033AC0042F480229A601A6842F480221A6000F07B
:1033BC0019FC00222A20114603B0BDE8304000F071
:1033CC00E1BB03B030BD00BF005C0040007A0008D8
:1033DC00001002400004014000F52671D0F8D40220
:1033EC00FFF7C8BB282303FB0103D0F8D402D3F8A2
:1033FC006421FFF7EFBB282303FB0103D0F8D402B1
:10340C005A6AFFF71CBCD0F8D402FFF7B6BC10B553
:10341C000446D0F8D402FFF765FCD4F8D40201219D
:10342C00BDE81040FFF78DBC10B50446D0F8D402AF
:10343C00FFF78AFCA37A23B1024A136943F006030F
:10344C00136110BD00ED00E010B5837A044633B172
:10345C0000F036FB054A136923F006031361D4F818
:10346C00D402BDE81040FFF77DBC00BF00ED00E0CA
:10347C00014800F011BD00BF0C030020FFF7F8BF9E
:10348C0008B5074B9B7A33B1064A136923F0060340
:10349C00136100F015FB4FF48022034B5A6108BDF9
:1034AC000C03002000ED00E00004014070B505465F
:1034BC0000F0ECFA0323104C2371104BC4F8D452D7
:1034CC0023600223E380A36000232046C5F8C84292
:1034DC00237300F051FC00B1FEE70426084D6B6825
:1034EC002A892988204601F0A0FA013E05F10C0535
:1034FC00F5D1304670BD00BF0C030020005C0040CD
:10350C006C79000808B5D0F8C80200F098FC0020CF
:10351C0008BD10B51446D0F8C8021A46234601F06F
:10352C0095F9002010BD08B5D0F8C80201F0BEF91D
:10353C00002008BD08B5D0F8C80201F00EFA002032
:10354C0008BD08B5D0F8C80201F03DFA002008BD4E
:10355C00282211F0800FD0F8C8321BBF01F07F0178
:10356C0002FB013302FB0133987C08BF93F8520134
:10357C00704708B5D0F8C80200F07AFC002008BDEE
:10358C0008B5D0F8C80201F0D0F9002008BD08B584
:10359C00D0F8C80201F0B2F9002008BDD0F8D4323E
:1035AC00B03350F82330002083F85000704708B532
:1035BC00D0F8D43200EB8300D0F8C0323BB1D0F855
:1035CC00C4225978D26818789047002008BD03208F
:1035DC00FCE7D0F8D43210B500EB8300D0F8C04231
:1035EC006CB1E36C012B01D0002010BDD0F8C432BB
:1035FC006178DB68207898470023E364F4E70320C4
:10360C00F3E700000A230380004870470400002001
:10361C0038B5812105460D48FFF7C0FB0446012152
:10362C000A48FFF7BBFB2CB14022227100226271C9
:10363C000522A27128B1402202710022427105229A
:10364C008271292301482B8038BD00BF1C0000204B
:10365C00FFF7DEBFFFF7DCBF37B50022D0F8D4424E
:10366C000B4600EB8404D4F8C012ADF806200029F8
:10367C0060D01A7812F0600226D0202A57D15A78DE
:10368C00023A092A53D8DFE802F0130A5252525276
:10369C0052160F059B780B64002003B030BD01223D
:1036AC004031FFF706FEF7E75B881B0A4B64F3E734
:1036BC0001224431F5E70122CA64DA88402A28BF86
:1036CC004022FFF70BFEE7E75A780B2A2FD801A50B
:1036DC0055F822F011370008A53600083B370008D2
:1036EC003B3700083B3700083B3700082137000800
:1036FC003B3700083B3700083B37000855370008BC
:10370C006337000890F89C22032A10D102220DF195
:10371C000601C6E75A88120A222A0DD1D4F8C4121F
:10372C00DA880968222A28BF22220029B9D1194631
:10373C00FFF792FD0320B0E7212AF8D1DA88094976
:10374C00092A28BF0922ACE790F89C22032AEED163
:10375C0001224831A5E790F89C22032AE7D19B78F7
:10376C008B6499E71000002038B5044600258121B0
:10377C00FFF7D9FE01212046A563FFF7D4FED4F84C
:10378C00D432C4F8785104EB8303D3F8C0228AB145
:10379C00D3F8C4329B689847D4F8D432B03354F879
:1037AC00230003F0BFFED4F8D432B03344F82350D6
:1037BC00C4F8BC52002038BDF8B50446542003F0C0
:1037CC00A9FED4F8D4320546B03344F8230008B926
:1037DC000220F8BD05230127002603228121C4F80D
:1037EC00BC026387A4F87A3120464023FFF791FE90
:1037FC0003223946402320462787FFF78AFED4F858
:10380C00D43285F8506004EB8303D3F8C432A4F8A7
:10381C0078715B68984740232A4639462046FFF763
:10382C00B6FE3046D5E738B51346D0F8D422B032C0
:10383C0050F8222082B190F89C42032C01D0002039
:10384C0038BD92F85050012445B982F850400A46D0
:10385C008121FFF795FEF2E70320F1E72046EFE721
:10386C00D0F8D42208B5B03250F822202AB1402327
:10387C000121FFF78CFE002008BD0320FCE739B1C5
:10388C00D0F8D43200EB8300C0F8C412002070478B
:10389C00032070470020024B1870024B18807047B1
:1038AC002A060020E805002000207047114A08B5C0
:1038BC00D2F8D432B03352F82330ABB10E4A03F104
:1038CC00400153F8040B8B4242F8040BF9D140230E
:1038DC0001210A4A13800A4B19700A4B1B681BB151
:1038EC001188054889B298470248FFF7B9FF0020B4
:1038FC0008BD00BF2C060020EA050020E8050020CA
:10390C002A060020E405002008B500220A490B48CD
:10391C00FFF7F2F870B90A490848FFF7B0FF48B949
:10392C0008490648FFF7FBF820B9BDE808400348F2
:10393C00FFF70EB908BD00BFE40000202C060020E4
:10394C0080000020480000200A4601460148FFF78D
:10395C006ABF00BF2C060020014B1878704700BFCF
:10396C002A06002038B50C4D0C462A7802F0FF03CD
:10397C007AB10A4A13889BB28B4238BF1488084923
:10398C0038BFA4B2224603F0C1FE0023E0B22B7074
:10399C0038BD1846FCE700BF2A060020E8050020C9
:1039AC00EA050020122301480B807047D00000204C
:1039BC00042301480B807047CC000020004870475E
:1039CC0008090020002370B51E464D1C040FB0F1F1
:1039DC00204F34BF3034373401F8134005F81360EE
:1039EC000133DCB2A2424FEA0010EFD870BD0000E8
:1039FC001A2310B50B800A4BD3F8E807D3F8F0273D
:103A0C0080180AD0D3F8EC4706490822FFF7DAFFF2
:103A1C00042220461031FFF7D5FF034810BD00BF2C
:103A2C0000F0FF1FB4000020B200002008B50A46C9
:103A3C0002480349FFF71BFC014808BD0079000848
:103A4C00080A002008B50A4602480349FFF70FFC94
:103A5C00014808BD10790008080A002008B50A467C
:103A6C0002480349FFF703FC014808BD217900080F
:103A7C00080A002008B50A4602480349FFF7F7FB7D
:103A8C00014808BD44790008080A002008B5012146
:103A9C000C2002F02FFF084B0A201A68074B1B6BF7
:103AAC00C3F30F23536103F04DFBBDE80840002125
:103ABC000C2002F01FBF00BF0C010020B0790008E1
:103ACC0008B502F0C7FCBDE8084003F0EDB970473B
:103ADC0038B50E4B05461A784FF47A73B3FBF2F3F4
:103AEC000B4A1068B0FBF3F000F09CF8044658B990
:103AFC000F2D09D8024629464FF0FF3000F042F84E
:103B0C002046044B1D6038BD0120FCE70401002059
:103B1C002801002008010020074A08B5136803207B
:103B2C0043F01003136000F01BF80020FFF7D0FFE8
:103B3C00FFF7CDFF002008BD00200240034A044BD4
:103B4C0011681B780B441360704700BF080B0020F2
:103B5C0004010020014B1868704700BF080B0020BF
:103B6C0007490302CA6803F4E06322F4E06212041A
:103B7C00120C134343F0BF6343F40033CB60704724
:103B8C0000ED00E0154B30B5DC68C4F30224C4F141
:103B9C000703251D042B28BF0423062D4FF0FF35EA
:103BAC0094BF0024033C05FA03F321EA0303A54068
:103BBC0022EA0502A340002843EA0203ACBF00F14D
:103BCC006040074A4FEA0313DBB2ABBF00F561401C
:103BDC0000F00F0080F80033135430BD00ED00E00E
:103BEC0014ED00E0002807DB01234109034A00F033
:103BFC001F00834042F82130704700BF00E100E015
:103C0C0000280CDB01220649430900F01F0082400A
:103C1C00203341F82320BFF34F8FBFF36F8F7047D2
:103C2C0000E100E00138B0F1807F0BD24FF0E023CF
:103C3C00F021054A586182F8231000200722986170
:103C4C001A6170470120704700ED00E0002808DB86
:103C5C0001224309034900F01F008240603341F800
:103C6C002320704700E100E0704708B5FFF7FCFF28
:103C7C0008BD704710B5044650B1437903F0FF02FC
:103C8C0013B90271FFF7F5FF01230020637110BD1A
:103C9C000120FCE790F821200346022A06D00422DA
:103CAC0082630120002283F8202070470268C06BD9
:103CBC00116821F00E011160116821F001011160F1
:103CCC0001211A6C01FA02F24260002083F82110E3
:103CDC00E8E7000008B590F82130022B03D004234C
:103CEC008363012008BD03681A6822F00E021A6073
:103CFC001A6822F001021A60174A93421FD014323C
:103D0C0093421ED0143293421DD0143293421DD0D4
:103D1C00143293421DD01432934214BF4FF080736F
:103D2C004FF480130D4A5360012380F82130002397
:103D3C0080F82030436B03B198470020D2E7012371
:103D4C00F0E71023EEE74FF48073EBE74FF480536A
:103D5C00E8E74FF48033E5E708000240000002403A
:103D6C00044A08B55169014202D0506102F0CAFB05
:103D7C0008BD00BF00040140F8B50446E0B190F85E
:103D8C00913203F0FF021BB980F89022FFF7D2FAB0
:103D9C00032384F8913200232546637155F8040BF4
:103DAC0001F0A1FD95E80E00206801F08CFD0146A4
:103DBC0028B1022384F8913201252846F8BD2068E9
:103DCC0001F09BFD0028F4D102460127267904F16D
:103DDC001003C1B28E4203F1280318D800210A4601
:103DEC0004F5A873C8B2864203F128031BD895E8E2
:103DFC000E00206801F083FD05460028D9D101236F
:103E0C006073206884F8913202F02EF8D5E743E90C
:103E1C00062203F8277C03F8281C03F8252C43F80A
:103E2C00102C0130D5E743E9062203F8272C03F8C0
:103E3C00280C03F8252C43F8102C0131D2E738B5A7
:103E4C0090F890320446012B10D0012580F8905246
:103E5C00006801F03FFD2946204600F0FFFD206878
:103E6C0002F000F8002084F8900238BD0220FCE734
:103E7C0010B590F890220446012A0AD00122417311
:103E8C0080F89022006801F0E7FF002084F890028F
:103E9C0010BD0220FCE700002DE9F04F044687B06E
:103EAC00006801F0E3FF10F4004500F025844FF0AA
:103EBC002809C54E2068B0F84430190402D407B064
:103ECC00BDE8F08FB0F84470B9B217F00F0740F0AE
:103EDC00BF8011F0100126D103889BB2334043F40C
:103EEC0000430380B0F85030227C9BB203EBC2033A
:103EFC0000EB4303B3F80434626AC3F309031A44B6
:103F0C00E36220466262FFF776FA637B002BD1D026
:103F1C00A26A002ACED1637B216843F08003A1F80A
:103F2C004C306273C6E70588ABB215F4006521D03E
:103F3C00B0F8503094F850219BB203EBC20300EB65
:103F4C004303B3F80C34B4F85621C3F30903C4F893
:103F5C006C3104F5267102F0D0F9226820461388E2
:103F6C0023F070031B051B0D43F080031380FFF738
:103F7C0033FA9FE71B049DD5038823F070031B05C0
:103F8C001B0D43F080030380B0F8503094F850219F
:103F9C009BB203EBC20300EB4303B3F80C34C3F343
:103FAC000903C4F86C318BB1D4F8641171B1B4F855
:103FBC00562102F0A2F9D4F86431D4F86C212946C8
:103FCC0013442046C4F86431FFF70CFA21680A88C0
:103FDC00170593B23FF56EAF03F44053B3F5405F52
:103FEC003FF468AFB1F8502001F20C4092B2835A02
:103FFC00D4F86051C3F309033E2D83521DD9835A63
:10400C006F09ED0608BF07F1FF379BB243EA872320
:10401C006FEA43436FEA53439BB283520B8823F4FA
:10402C00804323F070031B041B0C83F4405343F4B4
:10403C00004343F080030B803CE7835A002DE7D00C
:10404C0005F001079BB207EB550543EA8523E3E72F
:10405C0030F8273019041FFA83F840F1F38030F858
:10406C00273009FB074223F070031B051B0D43F09F
:10407C00800320F8273092F85C5192F85031D2F836
:10408C00641100F5806E95B9B0F85050ADB206359C
:10409C0005EBC3033EF81350C5F30905002D00F0E2
:1040AC00B6802B46B2F8562102F027F9AFE092F811
:1040BC005351022D40F08A8018F480450195B0F8D8
:1040CC0050504FEAC30BADB2D2F868C108F0400AA9
:1040DC005D443CD002353EF81550C5F309056545E5
:1040EC0014D94FF0000CC2F868C130F8232022F428
:1040FC00804222F070021204120C82F4005242F43C
:10410C00004242F0800220F8232006E0ACEB050CC4
:10411C00C2F868C1BCF1000FE7D0BAF1000F0DD0A6
:10412C0030F8232022F4E04222F070021204120C28
:10413C0042F4004242F0C00220F82320002D66D049
:10414C00282202FB07422B46B2F85821ACE7063571
:10415C003EF81550C5F30905654514D9DDF804C0C2
:10416C00C2F868C130F8232022F4804222F0700299
:10417C001204120C82F4005242F4004242F080020B
:10418C0020F8232006E0ACEB050CC2F868C1BCF1AA
:10419C00000FE7D0BAF1000F0DD130F8232022F434
:1041AC00E04222F070021204120C42F4004242F07F
:1041BC00C00220F8232055B3282202FB07422B46CD
:1041CC00B2F85A2170E700BF0F8FFFFF30F8235071
:1041DC0025F4E04525F070052D042D0C45F4004523
:1041EC0045F0C00520F8235092F8505130F8253096
:1041FC00ED0013F4804FB0F850309BB22B4452D0EA
:10420C0002333EF81350C5F30905002D9BD109FB71
:10421C0007F16318D3F86C212A44C3F86C21D3F846
:10422C0064212A44C3F86421D3F868211AB1D3F865
:10423C0060319D423FD209FB0743204693F8501151
:10424C00FFF7D0F818F0800F3FF434AE206809FB6C
:10425C0007FC30F827309BB2334043F4004320F87E
:10426C00273004EB0C03DA7C012A54D1002107FB24
:10427C000992A1501A7F82B318F040085A7C34D0AE
:10428C0002BBB0F850201B7C92B21B0100F2044020
:10429C0010441A5AC2F309021A521A5A92B242F430
:1042AC0000421A5219E006333EF81350C5F30905C3
:1042BC00002DACD083E701F5A8712068214401F0F2
:1042CC00EBFDBFE7012A08D1B0F850201B7C92B25D
:1042DC0000F204401B0110441952282303FB07432E
:1042EC00197C2046FFF787F8E4E53AB9B0F850207E
:1042FC001B7C92B21B0100F20C40C9E7012AECD1E5
:10430C00B0F850201B7C92B200F20C401B01104400
:10431C0023F80080E1E7197CB0F850504FEAC10A4D
:10432C00ADB218F4807B9A6A00F5806E554417D1B3
:10433C0002353EF81550C5F30905954202D3C3F872
:10434C0028B0CEE7521B9A625A6A0CF110012A442B
:10435C005A62DA6A21442A44DA6201F09DFDA9E529
:10436C0018F0400C08F4804800F0E48002353EF868
:10437C0015501FFA88F8C5F3090595422CBF002289
:10438C00521B9A62002A55D1282303FB07435B7CFE
:10439C00002B3DD1B0F8502000F2044592B20B0135
:1043AC001544EA5AC2F30902EA52EA5A6FEA424247
:1043BC006FEA524292B2EA52B0F8502000F20C402E
:1043CC0092B21044C25AC2F30902C252C25A6FEAE4
:1043DC0042426FEA524292B2C2522046FFF70BF8A9
:1043EC00B8F1000F00F0E480282303FB0743226898
:1043FC00197C32F8213023F4E04323F070031B04C2
:10440C001B0C43F4404343F0800322F82130CFE0EF
:10441C00012BE2D1B0F850C000F204451FFA8CFC1D
:10442C0065440B01EA52B0F8505000F20C40ADB2AA
:10443C002844D1E7B8F1000F0DD030F8212022F438
:10444C00E04222F070021204120C42F4404242F09C
:10445C00800220F821204FF0280E0EFB074E9EF80C
:10446C003420012A40F0A480DEF8242002EB050C55
:10447C00CEF824C0DA6A2A44DA62DEF83030DEF88C
:10448C002020934231D39B1ACEF83030282303FBE3
:10449C0007435D7C93B2002D41D1B0F850E000F29F
:1044AC0004451FFA8EFE7544090135F801E03E2AD9
:1044BC00CEF3090E25F801E023D94FEA521ED2069D
:1044CC006A5A08BF0EF1FF3E92B242EA8E226FEAA0
:1044DC0042426FEA524292B26A52282202FB0742CF
:1044EC00128B614601F0C8FC62E01BB92A468EF8BB
:1044FC003430CBE700228EF83420CEF830201A4628
:10450C00C4E70AB96A5AE2E735F801E002F001089B
:10451C001FFA8EFE08EB52024EEA8222DBE7012DD7
:10452C00DBD1B0F8505000F20442ADB22A4409017C
:10453C005352D2E706353EF815501FFA88F8C5F3EA
:10454C00090595428CBF6246521B9A62002A57D1CC
:10455C00282303FB07435B7C002B3FD1B0F8502092
:10456C0000F2044592B20B011544EA5AC2F3090257
:10457C00EA52EA5A6FEA42426FEA524292B2EA5265
:10458C00B0F8502000F20C4092B21044C25AC2F360
:10459C000902C252C25A6FEA42426FEA524292B2C6
:1045AC00C2522046FEF727FFB8F1000F3FF41CAFB4
:1045BC00282303FB07472268397C32F8213023F487
:1045CC00E04323F040031B041B0C83F0300343F443
:1045DC00004343F0800322F821306BE4012BE0D13F
:1045EC00B0F850C000F204451FFA8CFC65440B0176
:1045FC00EA52B0F8505000F20C40ADB22844CFE76C
:10460C00B8F1000F0DD130F8212022F4E04222F055
:10461C0070021204120C42F4404242F0800220F864
:10462C0021204FF0280E0EFB074E9EF83420012A55
:10463C00BED1DEF8242002EB050CCEF824C0DA6AD9
:10464C002A44DA62DEF83030DEF8202093422ED392
:10465C009B1ACEF83030282303FB07435D7C93B2C2
:10466C00002D3ED1B0F850E000F20C451FFA8EFE42
:10467C007544090135F801E03E2ACEF3090E25F800
:10468C0001E020D94FEA521ED2066A5A08BF0EF139
:10469C00FF3E92B242EA8E226FEA42426FEA5242E7
:1046AC0092B26A52282202FB0742528B19E71BB9BD
:1046BC002A468EF83430CEE70022CEF830208EF821
:1046CC0034201A46C7E70AB96A5AE5E735F801E01B
:1046DC0002F001081FFA8EFE08EB52024EEA82220B
:1046EC00DEE7012DDED1B0F8502000F20C4592B27D
:1046FC0015440A01AB52D5E7420512D52268204673
:10470C00B2F8443023F480631B041B0CA2F8443031
:10471C00FEF77DFE2946204607B0BDE8F04FFFF7B7
:10472C00A7BB43040AD52268B2F8443023F4804373
:10473C001B041B0CA2F84430FFF7C1BB870405D542
:10474C002268B2F8443023F40053F1E7C60419D5BB
:10475C0022682046B2F8403023F004031B041B0CE3
:10476C00A2F84030B2F8403023F008031B041B0CB5
:10477C00A2F84030FEF768FE2268B2F8443023F409
:10478C008053D5E7050548D5236802AD1846294660
:10479C001A4603F1200632F8047B964221F8027B7C
:1047AC00F9D1B3F8402092B242F00102A3F84020B4
:1047BC00B3F8402022F001021204120CA3F840209E
:1047CC00B3F844205105FBD5B3F8442022F48062A1
:1047DC001204120CA3F8442035F8022B20F8042BF9
:1047EC008642F9D1B3F84020204692B242F008023A
:1047FC00A3F84020B3F8442022F400621204120CF7
:10480C00A3F84420B3F8402092B242F00402A3F87B
:10481C004020FEF709FEFFF752BB82050DD522683A
:10482C002046B2F8443023F400731B041B0CA2F88E
:10483C004430FEF7E8FDFFF742BBC3057FF53FAB05
:10484C002268B2F8443023F4807371E770B52824E1
:10485C00054601F00700444311F0800F14BF04F12A
:10486C00100104F5A87105EB040615BF0124002402
:10487C00747486F8514114BF49194919022BCB7035
:10488C0008BF0023087008BF0B710A6195F89032BD
:10489C00012B09D00123286885F8903201F040F8EB
:1048AC00002085F8900270BD0220FCE7282301F05F
:1048BC000702534311F0800F10B5044618BF03F1E3
:1048CC00100118440BBF03F5A8710123002309192B
:1048DC000ABF0919437480F851310A7094F8903268
:1048EC00012B09D00123206884F8903201F078F96B
:1048FC00002084F8900210BD0220FCE770B528243B
:10490C00002601F007014C43051985F8501185F874
:10491C00516104F5A8710144C5E95923C5F86C61CE
:10492C00006801F0B9FA304670BD70B5282501F069
:10493C0007014D434419C4E90923012200262174BF
:10494C0084F83420627405F1100101442363E6629B
:10495C00006801F0A1FA304670BD38B5037901F05A
:10496C000705AB4204462AD311F0800F4FF0280301
:10497C001CD001226B4303F11001034401445A740F
:10498C0001230D708B7094F890229A4219D02068F4
:10499C0084F8903201F0F7F925B9206804F52671F6
:1049AC0001F068FA002084F8900238BD00224B43D5
:1049BC0003F5A8710344014483F85121E0E7012079
:1049CC00F3E70220F1E738B5027901F00F039A42C0
:1049DC00044626D3282301F00702534311F0800F1D
:1049EC0014BF03F1100103F5A87118444FF0000532
:1049FC0015BF012300230919091914BF437480F84A
:104A0C0051318D700A7094F89032012B0BD0012328
:104A1C00206884F8903201F0D6F9284684F8905238
:104A2C0038BD0120FCE70220FAE710B5282411F06C
:104A3C00800F1BBF01F0070104FB010004FB010008
:104A4C00103008BF00F5A87099B21AB90273C18072
:104A5C00002010BD012283600273F9E7704700004B
:104A6C002DE9F341054638B30368DB0710D42B68F6
:104A7C009F075ED42B68190700F195802B685A07A5
:104A8C0000F1C180EB69002B40F02C81002029E063
:104A9C00904C636803F00C03042B07D0636803F09D
:104AAC000C03082B0AD16368DE0307D523689C032B
:104ABC00DDD56B68002BDAD1012013E06B68B3F500
:104ACC00803F12D1236843F480332360FFF742F810
:104ADC00064623689803CAD4FFF73CF8801B642869
:104AEC00F7D9032002B0BDE8F0819BB9236823F409
:104AFC0080332360236823F480232360FFF72AF894
:104B0C00064623689903B2D5FFF724F8801B642866
:104B1C00F7D9E6E7B3F5A02F236803D143F480233C
:104B2C002360CFE723F480332360236823F48023AE
:104B3C00CBE7684C636813F00C0F07D0636803F085
:104B4C000C03082B10D16368DA030DD423689B0780
:104B5C0002D52B69012BAFD123686A6923F0F803C6
:104B6C0043EAC203236085E72A695B4B6AB10122E1
:104B7C001A60FEF7EFFF064623689F07ECD4FEF79A
:104B8C00E9FF801B0228F7D9ABE71A60FEF7E2FFBA
:104B9C000646236898077FF56DAFFEF7DBFF801B99
:104BAC000228F6D99DE7AA694A4E4B4BE2B1012285
:104BBC00C3F88024FEF7CEFF0446736A9B070DD51D
:104BCC004FF4FA52454B1B68B3FBF2F3019300BF51
:104BDC00019B5A1E0192002BF9D14FE7FEF7BAFF49
:104BEC00001B0228E9D97CE7C3F88024FEF7B2FF4A
:104BFC000446736A9F077FF541AFFEF7ABFF001BBE
:104C0C000228F6D96DE7334CE369D80024D4012788
:104C1C00E36943F08053E361E36903F0805300934D
:104C2C00009B2F4E3368D90518D5EB68012B26D184
:104C3C00236A43F001032362FEF78CFF41F28838AC
:104C4C000646236A9B073FD5002F3FF41BAFE36951
:104C5C0023F08053E36115E70027E2E7336843F460
:104C6C0080733360FEF776FF80463368DA05DCD458
:104C7C00FEF770FFA0EB08006428F6D931E7ABB95A
:104C8C00236A41F2883823F001032362236A23F05C
:104C9C0004032362FEF75EFF0646236A9807D3D50A
:104CAC00FEF758FF801B4045F7D91AE7052B236AFE
:104CBC0003D143F004032362BAE723F00103236218
:104CCC00236A23F00403B6E7FEF744FF801B40453C
:104CDC00B7D906E70010024000004242280100202C
:104CEC00007000402A4C626802F00C02082A3ED088
:104CFC000022022B274B1A662CD1FEF72BFF0646FF
:104D0C002368990120D42B6AB3F5803F05D16268E2
:104D1C00A96822F400320A436260696A62680B4334
:104D2C0022F474121343012263601A4B1A66FEF7C5
:104D3C0011FF054623689A013FF5A8AEFEF70AFF5E
:104D4C00401B0228F6D9CCE6FEF704FF801B022894
:104D5C00D6D9C6E6FEF7FEFE054623689B017FF515
:104D6C0095AEFEF7F7FE401B0228F6D9B9E6012BEB
:104D7C003FF4A2AE60682B6A00F480329A427FF452
:104D8C009BAE6B6A00F47010C01A18BF0120A9E624
:104D9C0000100240000042420D4A536803F00C011F
:104DAC00082912D10B48C3F38341DB03405C09D5BE
:104DBC005368094AC3F340435043084AD35CB0FBE1
:104DCC00F3F07047064B584370470348704700BFD9
:104DDC00001002409E79000800127A009C790008AD
:104DEC0000093D002DE9F0410D46044610B90120A3
:104DFC00BDE8F081444A136803F007038B4228D3C3
:104E0C0021688E0730D4CA0743D43F4A136803F095
:104E1C000703AB4265D822683C4D12F0040F6CD1ED
:104E2C00130706D56B68226923F4605343EAC20367
:104E3C006B60FFF7B1FF6B68354AC3F30313D35CA8
:104E4C00D840344B1860344B1868FEF741FE0020F4
:104E5C00CEE7136823F007030B431360136803F0CA
:104E6C0007038B42C3D1CBE7284B11F0040F1EBFB5
:104E7C005A6842F4E0625A60080742BF5A6842F42A
:104E8C0060525A605A68A06822F0F00202435A60DD
:104E9C00B9E762681D4E012A33681AD113F4003F3A
:104EAC00A5D0736841F2883823F003031343736071
:104EBC00FEF750FE07467368626803F00C03B3EB11
:104ECC00820FA2D0FEF746FEC01B4045F3D903204B
:104EDC008EE7022A02D113F0007FE1E713F0020FF4
:104EEC00DEE7136823F007032B431360136803F00A
:104EFC000703AB427FF47BAF8DE76B68E16823F46B
:104F0C00E0630B436B608BE7002002400010024013
:104F1C00F0790008280100200801002003682DE921
:104F2C00F3410546D80720D5364CE369D9002AD47D
:104F3C000126E36943F08053E361E36903F0805396
:104F4C000193019B304F3B68DA051ED5236A13F49D
:104F5C0040732ED1236A6A6823F44073134323628F
:104F6C001EB1E36923F08053E3612A68910706D5EB
:104F7C002449A8684B6823F4404303434B60D30691
:104F8C0037D4002012E00026DCE73B6843F4807342
:104F9C003B60FEF7DFFD80463B68DB05D6D4FEF7B1
:104FAC00D9FDA0EB08006428F6D9032002B0BDE8B7
:104FBC00F0816A6802F440729A42CBD00120134A05
:104FCC00236AC2F84004002023F44071DF07C2F8C2
:104FDC0040042162BED5FEF7BDFD41F2883807467C
:104FEC00236A9807B6D4FEF7B5FDC01B4045F7D928
:104FFC00DBE7044AE968536823F480030B435360EE
:10500C00BFE700BF001002400070004000004242A9
:10501C0070477047036870B5DD681E690446B107B8
:10502C000DD5AA070BD56FF002021A610122027787
:10503C009B699B0769D000F044FC00232377710720
:10504C0010D56A070ED56FF00402236820461A614A
:10505C00022222779B6913F4407F5CD000F031FC74
:10506C000023237733070FD528070DD56FF00802DF
:10507C00236820461A6104222277DB69990750D0F5
:10508C0000F01FFC00232377F20610D5EB060ED59B
:10509C006FF01002236820461A6108222277DB6920
:1050AC0013F4407F43D000F00CFC00232377F0076F
:1050BC0008D5E90706D56FF00102236820461A616E
:1050CC0000F0DCFB320608D52B0606D56FF080020B
:1050DC00236820461A6100F090F8700608D569061E
:1050EC0006D56FF04002236820461A61FFF791FF46
:1050FC00B20622D5AB0620D56FF0200223682046DD
:10510C00BDE870401A6100F077B800F0D8FB20467B
:10511C00FFF77EFF91E700F0D2FB2046FFF778FF08
:10512C009EE700F0CCFB2046FFF772FFAAE700F0E9
:10513C00C6FB2046FFF76CFFB7E770BD174A036844
:10514C0090420AD0B0F1804F07D0A2F59432904231
:10515C0003D002F58062904207D14A6823F07003B5
:10516C001343CA6823F4407313434A6923F0800342
:10517C00134303608B68C3620B688362074B9842CE
:10518C0004BF0B690363012343610369DB0742BF5F
:10519C00036923F001030361704700BF002C014039
:1051AC0010B5044630B390F83D3003F0FF021BB944
:1051BC0080F83C2001F05AFD0223206884F83D3031
:1051CC00211DFFF7BBFF0123002084F8463084F833
:1051DC003E3084F83F3084F8403084F8413084F815
:1051EC00423084F8433084F8443084F8453084F8F5
:1051FC003D3010BD0120FCE770477047026802F19A
:10520C000C0353E8003F23F490730C3242E8003156
:10521C0002680029F2D102F1140353E8003F23F095
:10522C00010302F1140C4CE800310029F3D1036B9B
:10523C00012B0BD102F10C0353E8003F23F01003B8
:10524C0002F10C0C4CE800310029F3D1202380F83A
:10525C00423000230363704790F84130202B10D16B
:10526C0089B182B1C2848284002321220162016847
:10527C00436480F84120CA68184642F08002CA6034
:10528C007047022070470120704708B50023406A20
:10529C00C385C38401F078FD08BD704790F8423097
:1052AC0007B5222B42D181680268B1F5805F836A11
:1052BC003FD1016900293FD15268C2F3080223F89B
:1052CC00022B8362C38D013B9BB2C385002B2DD176
:1052DC000268D16821F02001D160D16821F480717D
:1052EC00D160516921F001015161202280F84220E6
:1052FC004363026B012A026828D1036302F10C0399
:10530C0053E8003F23F0100302F10C0C4CE8003181
:10531C000029F3D11368DB0605D5019113680193BD
:10532C0053680193019B818DFFF7B7FF03B05DF8C4
:10533C0004FB39B9016929B95268D2B21A70836A6F
:10534C000133BEE7526802F07F02F7E701F016FD69
:10535C00ECE70000036873B51A6804461607D968B1
:10536C005D6908D1960668D58D0666D502B0BDE894
:10537C007040FFF793BF05F0010001F490750543F1
:10538C005BD0D60705D5CD0542BF636C43F0010356
:10539C006364530704D518B1636C43F00203636470
:1053AC00960704D518B1636C43F0040363641507C6
:1053BC0007D501F0200303431EBF636C43F00803C1
:1053CC006364636C002B32D0920604D58B0602D535
:1053DC002046FFF763FF266820467369626C03F072
:1053EC00400302F0080253EA020522D0FFF706FF41
:1053FC0073695E0618D5226802F1140353E8003F66
:10540C0023F04003143242E800310029F3D1E06B61
:10541C0050B1744B4363FEF75DFC40B1E06B436BE2
:10542C0002B0BDE870401847204601F0ADFC02B058
:10543C0070BD01F0A9FC6564F9E7206B012840F010
:10544C009480D50640F19180C80640F18E800022F0
:10545C0001921A6801925A680192019A5A6952068D
:10546C004DD5E16B0A68526892B2002ADFD0A08D4C
:10547C009042DCD9E2858A69202A36D003F10C02ED
:10548C0052E8002F22F4807203F10C0040E8002156
:10549C000029F3D103F1140252E8002F22F001028B
:1054AC0003F1140040E800210029F3D103F11402A8
:1054BC0052E8002F22F0400203F1140040E80021D2
:1054CC000029F3D1202284F84220216303F10C023D
:1054DC0052E8002F22F0100203F10C0040E80021EA
:1054EC000029F3D1E06BFEF7D5FB02236363E38D58
:1054FC00A18DC91A89B22046FFF7CFFE97E7E28D3E
:10550C00E18D92B289B2002991D0A18D891A89B20C
:10551C0000298CD003F10C0252E8002F22F4907277
:10552C0003F10C0545E800200028F3D103F1140227
:10553C0052E8002F22F0010203F1140545E8002087
:10554C000028F3D1202284F84220206303F10C02BE
:10555C0052E8002F22F0100203F10C0545E8002060
:10556C000028F3D102236363C5E7160628D50D0680
:10557C0026D594F84120212A7FF459AFA168226ADC
:10558C00B1F5805F17D12169A9B932F8021BC1F3BB
:10559C00080159602262E28C013A92B2E284002A3C
:1055AC007FF445AFDA6822F08002DA60DA6842F004
:1055BC004002DA603BE7511C216212785A60EAE73C
:1055CC0050067FF534AF4A067FF531AFDA682046D6
:1055DC0022F04002DA60202384F8413001F0D1FB44
:1055EC0025E700BF9752000890F84030012B11D0EE
:1055FC002423026880F84130D36823F00C0343F075
:10560C000803D360202380F84130002380F8403019
:10561C00184670470220704790F84030012B11D08B
:10562C002423026880F84130D36823F00C0343F044
:10563C000403D360202380F84130002380F84030ED
:10564C00184670470220704790F8412090F84200AD
:10565C00104370470023C28543642223828502696C
:10566C0080F84230816203681AB1DA6842F48072C1
:10567C00DA605A69002042F001025A61DA6842F09D
:10568C002002DA60704770B590F84260202E07D186
:10569C0041B13AB100240463FFF7DCFF204670BD32
:1056AC000220FCE70120FAE7836810B504462BB111
:1056BC000322014698470023C4E9023310BD8368D6
:1056CC0010B5044613B1032201469847204610BD7D
:1056DC000B4B98420BD0B0F1804F0AD0A3F594330A
:1056EC00984208D003F58063984206D0FEE700206C
:1056FC00704701207047022070470320704700BF9D
:10570C00002C0140024670B5044652F8100FFFF70A
:10571C00DFFF0546104601F03BFA0023084A04F16E
:10572C00600642F82530E36004F1B005B54204D0C0
:10573C00103D2846FFF7C3FFF8E7204670BD00BFB9
:10574C000C0B0020F8B504460846FFF7C1FF23698F
:10575C0003B1FEE71B4D04F10C0245F820200E228C
:10576C0004F110063046C4E90C33C4E90E33C4E925
:10577C001033C4E91623216184F82C30A36484F817
:10578C004C3084F84D30E46001F0BEF904F1600552
:10579C0004F1B00728461035FFF786FFBD42F9D15A
:1057AC0000234FF6FF72C4E90033C4E90632C4E9A2
:1057BC000833A360636180233046A362BDE8F840E0
:1057CC00FFF7EEBC0C0B0020034B186810B1043033
:1057DC00FFF720BC704700BF0C0B0020FFF7F4BF95
:1057EC00034B586810B10430FFF714BC704700BF6E
:1057FC000C0B0020034B986810B10430FFF70ABC67
:10580C00704700BF0C0B0020034BD86810B104305C
:10581C00FFF700BC704700BF0C0B00200022C0E952
:10582C000022C0E902227047F8B504460E4600F18A
:10583C00600500F1B00728461035FFF7EFFFBD42B9
:10584C00F9D10023204631462361FFF77BFF204628
:10585C00F8BD826810B50AB901F0FAFFC368BDE85B
:10586C001040184708B500B9FEE701F04BF9006885
:10587C00836E13B16030FFF7ECFF08BDFFF7F2BF8A
:10588C0010B500B9FEE7037F013B072B10D8DFE80A
:10589C0003F004140F100F0F0F12012401F032F952
:1058AC000068063400EB041083680BB1FFF7D1FFDE
:1058BC0010BD0324F2E70424F0E70224EEE7FFF71F
:1058CC00DFBFFFF7DDBF84B004A800E90E000020A5
:1058DC0004B0704703464FF43F420020A3F8440045
:1058EC00A3F840207047B0F8403023F47C535B049D
:1058FC005B0CA0F8403000207047002070471FB5AB
:10590C00044604A800E90E0000200123A4F840304E
:10591C00A4F84000A4F84400A4F8500004B010BD52
:10592C00F0B50A78CD7830F82240034624F4EC44E4
:10593C0024F070042404240C032D03D8DFE805F0B4
:10594C0041494745012048F280073C4323F8224057
:10595C0033F822409F4EA4B2344014433C4323F806
:10596C0022400C7B03EB021C002C40F08C80CC887A
:10597C004F78640864007FB3B3F8501089B2614467
:10598C00A1F8004433F822104C0609D533F8221044
:10599C0089B2314041F4004141F0C00123F822109A
:1059AC0033F822108C4C89B2012D01EA040101D08C
:1059BC0081F0200141F4004141F0800123F82210D4
:1059CC004DE0284644F40074BDE744F4C064002064
:1059DC00B9E744F48064FAE7B3F85050ADB26544CB
:1059EC00A5F80844B3F85040A4B26444B4F80C547D
:1059FC00C5F30905A4F80C540D693E2D30D9E90600
:105A0C00B4F80C144FEA551608BF06F1FF3689B2EC
:105A1C0041EA86216FEA41416FEA514189B2A4F80B
:105A2C000C1433F822104F040DD533F8221021F446
:105A3C00E04121F070010904090C41F4404141F0AE
:105A4C00800123F82210654CB2B91A8892B2224018
:105A5C0082F4405242F4004242F080021A80F0BDBF
:105A6C00B4F80C14002DD5D005F0010689B206EB64
:105A7C00550541EA8521D1E733F8221089B221403E
:105A8C0081F4005196E7022D33F822405BD1A4B289
:105A9C00344044F4014444F0800423F82240B3F829
:105AAC0050400E89A4B2760864447600A4F80064D1
:105ABC004E89B3F850407608A4B264447600A4F83A
:105ACC0008644978002948D133F822104E040DD5CA
:105ADC0033F8221021F4E04121F070010904090C83
:105AEC0041F4404141F0800123F8221033F8221098
:105AFC004D060DD533F8221021F4E04121F0700150
:105B0C000904090C41F4004141F0C00123F82210B2
:105B1C0048F2800433F8221021F4804121F0700106
:105B2C000904090C81F44051214323F8221033F865
:105B3C00221021F4E04121F040010904090C0C432E
:105B4C0023F822408BE724F4E24424F0700424046C
:105B5C00240C274323F82270A1E733F822104C04BD
:105B6C000DD533F8221021F4E04121F07001090425
:105B7C00090C41F4404141F0800123F8221033F824
:105B8C00221049060DD533F8221021F4E04121F002
:105B9C0070010904090C41F4004141F0C00123F8E3
:105BAC00221033F822100C4C89B22140012D18BF61
:105BBC0081F0200141F4004141F0800123F82210D2
:105BCC0033F8221021F4804121F070010904090CF2
:105BDC00F0E600BF8F8FFFFFBF8FFFFF8FBFFFFF70
:105BEC004A780B78097BD9BB0AB330F823205106CD
:105BFC000DD530F8232022F4E04222F0700212047A
:105C0C00120C42F4004242F0C00220F8232030F87B
:105C1C00232022F4E04222F040021204120C42F43F
:105C2C00004242F0800220F823200020704730F818
:105C3C00232052040DD530F8232022F4E04222F028
:105C4C0070021204120C42F4404242F0800220F81E
:105C5C00232030F8232022F4804222F07002DCE76B
:105C6C00002A4AD130F8232051040DD530F82320D6
:105C7C0022F4E04222F070021204120C42F4404270
:105C8C0042F0800220F8232030F8232052060DD554
:105C9C0030F8232022F4E04222F070021204120C9D
:105CAC0042F4004242F0C00220F8232048F2800166
:105CBC0030F8232022F4E04222F070021204120C7D
:105CCC0042F4004242F0C00220F8232030F8232096
:105CDC0022F4804222F070021204120C0A4320F8C3
:105CEC00232030F8232022F4E04222F04002120458
:105CFC00120C114320F8231097E730F8232051049D
:105D0C000DD530F8232022F4E04222F07002120468
:105D1C00120C42F4404242F0800220F8232030F86A
:105D2C00232052060DD530F8232022F4E04222F035
:105D3C0070021204120C42F4004242F0C00220F82D
:105D4C00232048F2800130F8232022F4E04222F094
:105D5C0070021204120C42F4404242F0800220F80D
:105D6C00232030F8232022F4E04222F040021204D7
:105D7C00120C0A4320F8232030F8232022F480420E
:105D8C0022F07002B3E74B780A788BB130F82230EE
:105D9C0023F4E04323F040031B041B0C83F010039B
:105DAC0043F4004343F0800320F822300020704776
:105DBC0030F8223023F4804323F070031B041B0CB7
:105DCC0083F48053ECE70B7B3BBB4B780A7833B303
:105DDC0030F822305B060DD530F8223023F4E04346
:105DEC0023F070031B041B0C43F4004343F0C0036B
:105DFC0020F82230CB78012B0FD030F8223023F44E
:105E0C00E04323F040031B041B0C83F0200343F4FA
:105E1C00004343F0800320F822300020704730F814
:105E2C0022305B040DD530F8223023F4E04323F00C
:105E3C0070031B041B0C43F4404343F0800320F815
:105E4C00223030F8223023F4804323F070031B04FB
:105E5C001B0C83F44053DAE711B98023A0F84C30C3
:105E6C00002070470020704700207047B0F84400B5
:105E7C0080B270470020704700EB4200013300F500
:105E8C0080605B0800EB8303834200D1704731F8DC
:105E9C00022B20F8042BF7E72DE9F0474B7804464A
:105EAC00012B0D460A7B40F01581D1F810908F69BB
:105EBC0049694F4528BF4F460ABBBFB2EA883B46EB
:105ECC00FFF7DAFFB4F85000297880B204F20442EC
:105EDC00090102448F522A7834F8223023F4E0432B
:105EEC0023F040031B041B0C83F03003002043F40D
:105EFC00004343F0800324F82230BDE8F087EB78B0
:105F0C0095F800E0022B2E6A4FEA0E1C40F0CD8073
:105F1C00B14530F82E2080F0B18022F4E04222F01E
:105F2C0070021204120C42F4014242F0800220F87A
:105F3C002E2030F82E80B0F850E0F61B18F04008F8
:105F4C002E6201EB070ABBB21FFA8EFE4DD000F297
:105F5C000C42724422F80C306A89FFF78DFFB14570
:105F6C0036BFF31B00233E466A782B62C5F814A09B
:105F7C00B3B272BBB4F85020287892B204F2044148
:105F8C0000011144425A3E2EC2F30902425215D965
:105F9C00F206425A4FEA561708BF07F1FF3792B282
:105FAC0042EA87226FEA42426FEA524292B242526E
:105FBC002A8951462046FFF75FFF8CE7425A002E94
:105FCC00F0D006F0010792B207EB560642EA8622A1
:105FDC00ECE7012AECD1B4F85000297880B204F235
:105FEC000442090102448B52E2E700F2044272447B
:105FFC0022F80C302A89FFF73FFFB14536BFF31B5F
:10600C0043463E466A782B62C5F814A0B3B24ABB2D
:10601C00B4F85020287892B204F20C4100011144DB
:10602C00425A3E2EC2F30902425210D9425A770903
:10603C00F60608BF07F1FF3792B242EA87226FEAF1
:10604C0042426FEA524292B242526A89B1E7425AD4
:10605C00002EF4D006F0010792B207EB560642EA86
:10606C008622F0E7012AF0D1B4F85000297880B2EA
:10607C0004F20C42090102448B52E6E722F4E2429C
:10608C0022F070021204120C42F4004242F0800220
:10609C0020F82E20B0F8503000F204429BB21A4483
:1060AC00B3B222F80C302A8985E730F82E20F61B83
:1060BC002E62B0F850605206BBB2B6B206D500F2F2
:1060CC000C42324422F80C306A8974E700F2044224
:1060DC003244E6E7002A3BD18B690969B0F85000DD
:1060EC008B4284BF5A1A0B462978AA6180B204F2FB
:1060FC000C4209010244885A3E2BC0F30900885215
:10610C001AD95809DB068B5A08BF00F1FF309BB235
:10611C0043EA80236FEA43436FEA53439BB28B52AB
:10612C002A7834F8223023F4804323F070031B04C4
:10613C001B0C83F44053D9E60BB98B5AEAE7885A07
:10614C0003F0010680B206EB530340EA8323E5E734
:10615C00CA78022A70D1002B38D1B0F850200B78B5
:10616C0092B200F204401B011044C25AC2F309025D
:10617C00C2520A693E2A44D9C15A5609D70608BFE9
:10618C0006F1FF3689B241EA86216FEA41416FEA96
:10619C00514189B2C152B4F8500004F20C4180B2A2
:1061AC000144C85A3E2AC0F30900C85234D95009D8
:1061BC00D606CA5A08BF00F1FF3092B242EA8022DA
:1061CC006FEA42426FEA524292B2CA52EB69002B1A
:1061DC00A6D02A7834F82210480401F0400327D5C1
:1061EC00002B9DD034F8223023F4E04323F07003CD
:1061FC001B041B0C43F4004343F0C00324F822306F
:10620C008EE7C15A002AC0D002F0010689B206EB13
:10621C00520641EA8621BCE70AB9CA5AD0E7C85AE5
:10622C0002F0010680B206EB520240EA8222CBE772
:10623C00002B7FF475AFD5E7012A5CD18A69096917
:10624C008A4294BF0020501AA86188BF0A46002BCE
:10625C007FF466AFB4F850102B7889B204F2044086
:10626C001B010844C15A3E2AC1F30901C1522BD962
:10627C00D106C15A4FEA521608BF06F1FF3689B251
:10628C0041EA86216FEA41416FEA514189B2C1521C
:10629C00B4F8500004F20C4180B20144C85A3E2AB2
:1062AC00C0F30900C8521AD95009D206CA5A08BFFD
:1062BC0000F1FF3092B242EA80226FEA42426FEA6A
:1062CC00524292B2CA522BE7C15A002ADAD002F0DB
:1062DC00010689B206EB520641EA8621D6E70AB9D5
:1062EC00CA5AEAE7C85A02F0010680B206EB52021B
:1062FC0040EA8222E5E70120FFE500EB4200F0B521
:10630C0000F580605D0807460C462E46023436B90F
:10631C00DB0744BF30F8253001F81530F0BD37F8F5
:10632C00042B013E92B204F8022C120A04F8012C40
:10633C00ECE701F0EFB801F0F5B8000086B00428E6
:10634C0041D8DFE800F003101C2834001F4B204814
:10635C009A6942F004029A619B6903F00403019369
:10636C00019B06B07047194B1A489A6942F0080213
:10637C009A619B6903F008030293029BF1E7134BAC
:10638C0015489A6942F010029A619B6903F0100358
:10639C000393039BE5E70D4B10489A6942F02002EA
:1063AC009A619B6903F020030493049BD9E7074B84
:1063BC000B489A6942F040029A619B6903F04003D2
:1063CC000593059BCDE70020CBE700BF00100240F2
:1063DC0000080140000C0140001001400014014075
:1063EC0000180140F8B51349064600F04EFBFFF7C4
:1063FC006FF9114F054657F8203073B9B020FFF7ED
:10640C0098FF0C490446304600F03FFB01462046FD
:10641C00FFF70AFA57F825301C601C6844B1204677
:10642C00FFF770F92046BDE8F840B021FFF783BFB5
:10643C00F8BD00BF9C7A00080C0B0020FDF78ABB4E
:10644C00704708B5FDF77AFBFDF70FFCFFF7F8FF77
:10645C0008BD70470F4B84B0DA6942F08052DA61A4
:10646C00DA6902F080520192019A9A6942F00102B3
:10647C009A619A6902F001020292029A5A6942F0F8
:10648C0040025A615B6903F040030393039B04B021
:10649C00704700BF001002400C4BD3F8FC20D20117
:1064AC005EBFD3F8FC2042F08072C3F8FC200022BF
:1064BC00074B5A601A6842F001021A6000BF00BF15
:1064CC0000BF5868B0FA80F04009704700ED00E05A
:1064DC00001000E008B5FFF7BDFFFFF7DDFFFDF78B
:1064EC001BFBFFF7B6FF00F0DFFCBDE808400148DE
:1064FC00FDF7C0BB200100200023C0E90033C0E938
:10650C00023370470023012803F101020AD114223F
:10651C00DBB25343054A181D1044816829B11A4453
:10652C001369184713464008EDE770471C0B002011
:10653C000120FDF715BC0220FDF712BC0420FDF76D
:10654C000FBC0820FDF70CBC1020FDF709BC08B5EA
:10655C002020FDF705FC4020FDF702FC8020FDF714
:10656C00FFFB4FF48070FDF7FBFBBDE808404FF4D8
:10657C000070FDF7F5BB38B506244FF48065A8B262
:10658C00FDF7EEFB013C4FEA4505F8D138BD0000A4
:10659C00344A08B51046062300F8043BFFF7ACFF5D
:1065AC00072302F118001375FFF7A6FF082302F169
:1065BC002C0082F82830FFF79FFF092302F14000DE
:1065CC0082F83C30FFF798FF0A23172102F15400A0
:1065DC0082F85030FFF790FF02F1680082F86410E7
:1065EC00FFF78AFF02F17C0082F87810FFF784FF36
:1065FC0002F1900082F88C10FFF77EFF02F1A400EC
:10660C0082F8A010FFF778FF82F8B410282102F16D
:10661C00B800FFF771FF02F1CC0082F8C810FFF749
:10662C006BFF02F1E00082F8DC10FFF765FF02F16E
:10663C00F40082F8F010FFF75FFF02F5847082F827
:10664C000411FFF759FF02F58E7082F81811FFF74D
:10665C0053FFBDE8084002F5987082F82C11FFF743
:10666C004BBF00BF1C0B002038B5054CA4F5A07522
:10667C00143C201DFFF723F8AC42F9D138BD00BF04
:10668C005C0C00207B4B82B09A69013842F001020D
:10669C009A619B6903F001030193019B23282CD879
:1066AC00DFE810F024002D0034003B0040004700D0
:1066BC004C00530058005F0068006D0074007D00B2
:1066CC008200890092009B00A000A700B000B500DA
:1066DC00BC002B002B002B00C100C8002B002B0092
:1066EC002B002B00CD00D200D900E000624A536889
:1066FC0043F0E06343F00103536002B070475E4A1D
:10670C00536823F0010343F0E063F5E75A4A5368FA
:10671C0043F0E06343F00203EEE7574A536823F07B
:10672C000203F0E7544A536843F0E06343F0040378
:10673C00E2E7514A536823F00403E4E74E4A5368F6
:10674C0043F0E06343F00803D6E74B4A536823F069
:10675C000803D8E7484A536843F0E06343F030033A
:10676C00CAE7454A536823F0300343F0E06343F033
:10677C001003C1E7404A536823F03003C3E73E4A95
:10678C00536843F0E06343F0C003B5E73A4A5368FB
:10679C0023F0C00343F0E06343F04003ACE7364A18
:1067AC00536823F0C003AEE7334A536843F0E06309
:1067BC0043F44073A0E7304A536823F4407343F02A
:1067CC00E06343F4007397E72B4A536823F4407358
:1067DC0043F0E06343F480738EE7274A536823F455
:1067EC00407390E7244A536843F0E06343F44063FA
:1067FC0082E7214A536823F4406343F0E06343F497
:10680C00006379E71C4A536823F440637BE71A4A18
:10681C00536843F0E06343F480536DE7164A5368C2
:10682C0023F480536FE7144A536843F0E06343F456
:10683C00004361E7104A536823F4004363E70E4AB0
:10684C00536823F0E06357E70B4A536823F0E06387
:10685C0043F0807350E7084A536823F0E06343F039
:10686C00007349E7044A536823F0E06343F0806304
:10687C0042E700BF001002400000014091FAA1F372
:10688C00B3FA83F370B50D0E0F2691FAA1F1B1FA9C
:10689C0081F144599B0006FA03F3890024EA0304AE
:1068AC008A402243425170BD91FAA1F3B3FA83F3AB
:1068BC0070B50D0E042691FAA1F1B1FA81F144598B
:1068CC009B0006FA03F3890024EA03048A4022435E
:1068DC00425170BD431C04D00C3151F80C3C5A1C75
:1068EC0001D100207047834201F10C01F5D1012048
:1068FC0070470000431C2DE9F34106460F4600D1BA
:10690C00FEE7594B00F00F02C0F3031001F007082B
:10691C0053F82240FFF712FDB8F1010F054615D1CF
:10692C0094FAA4F3B3FA83F30321200E2A589B00A4
:10693C0001FA03F322EA030294FAA4F3B3FA83F301
:10694C009B00994011432950012213E0C7F3062004
:10695C00B8F1030F0AD801A353F828F07B6900089B
:10696C0055690008DF690008ED690008FEE7FFF7CC
:10697C0089FE08222146284608F1FF38FFF77EFFE2
:10698C00B8F1010F06D817F0080218BF04222146EF
:10699C00FFF78AFF94FAA4F2230EB2FA82F2E958B6
:1069AC000F239200934094FAA4F2B2FA82F2C7F346
:1069BC0001170B409200012F23FA02F312D0022F81
:1069CC003BD0082B21D1042221462846FFF756FF45
:1069DC001BE07F2801D10922CCE7FFF753FEFAE731
:1069EC000022C7E7042B04D1082221462846FFF7D2
:1069FC0045FF230A93FAA3F3B3FA83F20123E96860
:106A0C00934021EA14210B43EB60184B9A6942F036
:106A1C0001029A619B6903F001030193019BA6F1AA
:106A2C000D03012B14D8124A536823F0E06343F092
:106A3C008063536002B0BDE8F081042B04D10822BE
:106A4C0021462846FFF71AFFEB6823EA1423DBE7FD
:106A5C000F2E02D0133E012EECD8054A536823F0BA
:106A6C00E06343F00073E4E7B079000800100240E3
:106A7C00000001400B685A1C01D100207047834272
:106A8C0001D1486870470C31F4E7431C01D0FFF783
:106A9C00F1BF002070474B6813B94FF0FF307047BF
:106AAC00834201D1086870470C31F4E708B1FFF755
:106ABC00F2BF4FF0FF3070470E4B1A6842F00102E4
:106ACC001A6059680C4A0A405A601A6822F084729B
:106ADC0022F480321A601A6822F480221A605A68F2
:106AEC0022F4FE025A604FF41F029A60034B044AD0
:106AFC009A607047001002400000FFF800ED00E0C3
:106B0C00002000080438704703681D4A84B0934283
:106B1C000BD11C4B9A6942F400629A619B6903F495
:106B2C0000630093009B04B07047B3F1804F0BD10E
:106B3C0003F50433DA6942F00102DA61DB6903F030
:106B4C0001030193019BEEE70F4A93420AD10D4BCF
:106B5C00DA6942F00202DA61DB6903F002030293A4
:106B6C00029BE0E7094A9342DDD1064BDA6942F019
:106B7C000402DA61DB6903F004030393039BD2E79D
:106B8C00002C0140001002400004004000080040AE
:106B9C000368124A934206D102F56442936923F4C6
:106BAC00006393617047B3F1804F05D10C4AD369F0
:106BBC0023F00103D36170470A4A934205D102F5D1
:106BCC000332D36923F00203F4E7074A9342F2D16C
:106BDC0002F50232D36923F00403EBE7002C0140E9
:106BEC00001002400004004000080040431C10D07C
:106BFC000C4B984210D007D8B0F1804F0ED0A3F5B3
:106C0C00806398420CD0FEE7074B9842FBD11920C9
:106C1C0070476FF00D0070471E2070471C207047A6
:106C2C001D20704700080040002C0140431C10D070
:106C3C000C4B984210D007D8B0F1804F0ED0A3F572
:106C4C00806398420CD0FEE7074B9842FBD11B2087
:106C5C0070476FF00D0070471E2070471C20704766
:106C6C001D20704700080040002C014038B5044638
:106C7C00FFF74AFF0068FFF7B9FFD4E91212FCF7DF
:106C8C0081FF2068FFF7B2FFFCF7ACFF22681046CB
:106C9C00FFF7CCFF05461046FFF7A8FF85420BD047
:106CAC00D4E912122846FCF76DFF2068FFF7BEFFEF
:106CBC00BDE83840FCF796BF38BD000008B5074B5F
:106CCC0090F8652053F82200FEF7BEFC00F022007D
:106CDC00A0F122035842584108BD00BF5C0C0020B3
:106CEC0008B5074B90F8652053F82200FEF7ACFC72
:106CFC0000F02100A0F121035842584108BD00BF0B
:106D0C005C0C002038B515460446B8B1016590F905
:106D1C006400FCF775FFB4F87630E16E9BB294F822
:106D2C0065001944064BAAB253F82000FEF794FAFA
:106D3C0094F96400BDE83840FCF754BF38BD00BF7F
:106D4C005C0C002048B1836D013306D190F86520AE
:106D5C00024B53F82200FEF747BC70475C0C002036
:106D6C0048B1836D013306D190F86520024B53F87E
:106D7C002200FEF751BC70475C0C0020836C043879
:106D8C001847C36C0438184730B5044650F804391A
:106D9C0085B01D6815F0010512D0002200921A680A
:106DAC0000925B680093009BFFF788FF40BB0122B9
:106DBC00204604F1620105B0BDE83040FEF763BC2B
:106DCC00196811F0020106D001951A6801925B68EE
:106DDC000193019BE8E71A6812F0040206D00291B5
:106DEC001A6802925B680293029BDDE71968090737
:106DFC00DAD503921A6803925B680393039BD3E77B
:106E0C0005B030BD08B52520FCF720FF024B1868F3
:106E1C00BDE80840FEF79EBA5C0C0020262008B5A1
:106E2C00FCF714FF034B586818B1BDE80840FEF797
:106E3C0091BA08BD5C0C0020272008B5FCF706FFB2
:106E4C00034B986818B1BDE80840FEF783BA08BD3B
:106E5C005C0C002003460A4910B508680344EFF3A4
:106E6C000882934205D90C224FF0FF30054B1A6073
:106E7C0010BD054A054C121B9342F4D20B60F7E788
:106E8C002C010020D40E0020005000200004000033
:106E9C00FEE700001622024B4FF0FF301A607047DD
:106EAC00D40E00200120704710B594B0142200219C
:106EBC000CA800F0EDFB142200210DEB020000F0F9
:106ECC00E7FB1022002101A800F0E2FB02244FF4A2
:106EDC0080330122CDE91143CDE90A234FF4E013AD
:106EEC000AA80E921393FDF7BBFD00B1FEE70F232A
:106EFC00CDE905344FF480630790CDE90830214685
:106F0C0005A8FDF76FFF00B1FEE7122301934FF4C4
:106F1C000043CDE9033001A8FEF700F800B1FEE70D
:106F2C0014B010BD08B50320FCF71AFEBDE80840EC
:106F3C0000F024B908B5AFF30080FBF705FCFBF7B4
:106F4C001BFC00F00DF9FAE7FFF7B6FD0B480C49F6
:106F5C000C4A002302E0D458C4500433C4188C42A9
:106F6C00F9D3094A094C002301E013600432A24210
:106F7C00FBD300F0A5FBFFF7DDFF704700000020FE
:106F8C0080010020A87D000880010020DC0E00207C
:106F9C00FEE70000C3B2222B2DE9F0410D462AD8A2
:106FAC00274A00F4E06452F823301C43621C44D09E
:106FBC00244EC4F3031756F8273004F00F0823FAB5
:106FCC0008F3DB0710D520461F49FFF783FC10B1EF
:106FDC002046FFF707FA012256F8273002FA08F28A
:106FEC0023EA020346F82730052D15D8DFE805F013
:106FFC0015211B1D1F2300F0C002C02A1DD1C92B57
:10700C001BD8124B00F03F0253F822200C4B00F41B
:10701C00E06453F82230C8E7FEE700212046BDE8C3
:10702C00F041FFF767BC1021F8E72021F6E70321B8
:10703C00F4E70121F2E70921F0E7BDE8F08100BF98
:10704C00C87C0008680C00209C7A0008A07C000812
:10705C00C3B2222B1BD8174A00F4E06052F823303D
:10706C001843431C25D0C0F30313042B98BF124ABA
:10707C0000F00F0098BF52F82320104B88BF00225D
:10708C0053F82030C3F30F2391B11361704700F014
:10709C00C002C02A0DD1C92B0BD8094B00F03F02FE
:1070AC0053F82220034B00F4E06053F82230D7E76A
:1070BC0053617047C87C00080C010020B0790008AF
:1070CC00A07C0008C3B2222B1CD8194A00F4E06043
:1070DC0052F823301843431C25D0C0F30313042B60
:1070EC0023D8144A00F00F0052F82330124A9B6840
:1070FC0052F82020D84300EA122080B2B0FA80F077
:10710C004009704700F0C002C02A0CD1C92B0AD824
:10711C000A4B00F03F0253F82220054B00F4E060CC
:10712C0053F82230D6E70020704700239B68FFDE1F
:10713C00C87C00080C010020B0790008A07C000875
:10714C00FFF77CB938B5044648B1FFF777F9054627
:10715C0000F016F8FFF772F9431BA342F8D338BDC1
:10716C0008B5044B2BB1044800F00BF808B1AFF391
:10717C00008008BD000000007C0C0020FFF7AAB9BD
:10718C007047B0F80831B0F80421981A00F03F00AD
:10719C007047B0F80831B0F804219BB293421ABF83
:1071AC00D0F8FC30985C4FF0FF30704790F8063107
:1071BC00B0F80A01C0B2834227BFC3F13F03C01825
:1071CC00C01A00F1FF30704707B503688DF807103F
:1071DC0001225B680DF10701984703B05DF804FBD1
:1071EC00B0F87610826F10B50A4402F03F02A0F896
:1071FC007620B0F87610B0F8722089B28A421AD094
:10720C00B0F876404032A4B2B0F87610121B54425B
:10721C0089B204F03F0402F03F02C1F1400158BFB3
:10722C0062428A4228BF0A4604498267FFF76AFD18
:10723C004FF0FF3010BD0020FCE700BFED710008DF
:10724C002DE9F843036804469B6888461646984720
:10725C0001232374D4F8EC30B4F806710133814661
:10726C00C7F1400709D194F8113133B1002304F16F
:10727C00940084F81131FFF765FD236820469B6864
:10728C0098470028F9D03546BD4225D84D4523D81E
:10729C00B4F80631D4F800015A19402A184430D8F1
:1072AC002A46414600F032FA2F46B4F806311D4406
:1072BC0005F03F05A4F8065104F194052846FFF7A4
:1072CC000FFD30B93A4628461549C4F80C71FFF742
:1072DC0019FD3046BDE8F8834F4528BF4F4623685B
:1072EC003A4641465B6820469847236820469B688F
:1072FC009847ED1BB844B4F806718146C7F14007B6
:10730C00C2E7C3F140073A46414600F0FFF9D4F812
:10731C000001EA1B08EB070100F0F8F9C5E700BF14
:10732C00ED710008C0F8F030009B914208BF4FF09F
:10733C00FF31C0F8F43000F11403C0F8FC30002326
:10734C00C0E93A2100F15402A0F80831C0E9402309
:10735C00A0F80A3170470000F7B54FF47A7317465E
:10736C000022C0E901231C4B044603604FF0FF339D
:10737C00C0F8EC30194B1A4E9C420D46F06A05D100
:10738C00B36AC4F8EC30C4F8E8000AE01549FFF71A
:10739C007CFB854215D1B36AC4F8EC30F36AC4F8AF
:1073AC00E8304FF0FF33012F08BFC4F8EC300093E6
:1073BC002046D4E93A214FF0FF33FFF7B3FF03B077
:1073CC00F0BD28460849FFF771FB0649C4F8EC00EC
:1073DC002846FFF76BFBD6E75C7D00087C0C002091
:1073EC00C87C0008607A0008247A0008037C70B519
:1073FC0004460D46A3B1FCF7ADFB0646B4F80621D6
:10740C00B4F80A319BB29A420AD0002DF8D0FCF79E
:10741C00A1FB801B8542F1D8B4F80A31A4F80631DF
:10742C0070BD0021FFF7E2BFD0F8EC3010B501338E
:10743C0004460ED10368DB68984794F8113143B9C0
:10744C00012304F1940084F81131BDE81040FFF7DA
:10745C0087BC10BD10B50446FFF7E6FFB4F8082151
:10746C00B4F8043192B29A4217BFD4F8FC204FF012
:10747C00FF30D05C01331CBF03F03F03A4F8043190
:10748C0010BD0000002202490248FFF765BF00BF93
:10749C00003801407C0C002010B50446FFF750FE6C
:1074AC00E060236820465B699847002808DAFFF7FC
:1074BC0047FEE368C01AA3689842F2D34FF0FF303E
:1074CC0010BDF8B507460D460C468E18B44201D1D6
:1074DC00601BF8BD3846FFF7DFFF431CF8D004F8FB
:1074EC00010BF3E72DE9F0410746884616461D4689
:1074FC0073B100243846FFF7CFFF431C05D040453D
:10750C0003D030550134A542F4D12046BDE8F081BA
:10751C001C46FAE7024B0146186800F02DB800BF74
:10752C0030010020024B0146186800F0FDB800BF86
:10753C003001002070B50F4E0C463168054611B96C
:10754C0000F0AEF830602146284600F0A9F8431C44
:10755C0003D14FF0FF34204670BDC41C24F003044B
:10756C00A042F8D0211A284600F09AF80130F2D146
:10757C00EFE700BF940D00202DE9F843CD1C25F05A
:10758C00030508350C2D38BF0C25002D064601DBF4
:10759C00A94204D90C2333600020BDE8F883DFF83E
:1075AC00D48000F069F8D8F800301C4644BB29465A
:1075BC003046FFF7BFFF431C044658D1D8F80040B3
:1075CC002746002F43D1002C4BD023683946304638
:1075DC0004EB030900F064F8814542D12168304680
:1075EC006D1A2946FFF7A6FF01303AD023682B44C9
:1075FC002360D8F800305A6862BBC8F800700FE0FE
:10760C002268521B20D40B2A17D96119A34225607A
:10761C0018BF5960636808BFC8F8001062514B600E
:10762C00304600F02FF804F10B00231D20F007006A
:10763C00C21A1CBF1B1AA350AFE76268A3420CBF4F
:10764C00C8F800205A60EBE723466468AEE73C4676
:10765C007F68B6E71A465B68A342FBD100235360F0
:10766C00DEE70C233046336000F00CF894E705603D
:10767C00D6E700BF980D0020014800F045B800BFC8
:10768C00D80E0020014800F040B800BFD80E0020F2
:10769C0003460244934200D1704703F8011BF9E7FB
:1076AC0038B50023054D044608462B60FFF7D2FB86
:1076BC00431C02D12B6803B1236038BDD40E0020CB
:1076CC0070B500260C4D0D4B5B1B9C10A64209D1CE
:1076DC00002600F0C1F80A4D0A4B5B1B9C10A64219
:1076EC0005D170BD55F8043B98470136EEE755F8C7
:1076FC00043B98470136F2E7887D0008887D000836
:10770C00887D0008A07D0008704770470A449142AC
:10771C0000F1FF3300D1704710B511F8014B9142C5
:10772C0003F8014FF9D110BD38B50546002940D0FA
:10773C0051F8043C0C1F002BB8BFE418FFF79CFF5A
:10774C001C4A136833B9636014602846BDE838409E
:10775C00FFF798BFA34208D9206821188B4201BFBC
:10776C0019685B6809182160EDE71A465B680BB174
:10777C00A342FAD911685018A0420BD120680144D9
:10778C00501883421160E0D118685B68084410609F
:10779C005360DAE702D90C232B60D6E72068211856
:1077AC008B4201BF19685B680918216063605460E3
:1077BC00CBE738BD980D0020062008B500F02CF85A
:1077CC000120FFF765FB1F2938B505460C4604D987
:1077DC00162303604FF0FF3038BDC26B12B152F864
:1077EC0021304BB9284600F031F822460146284694
:1077FC00BDE8384000F018B8012B0AD0591C03D151
:10780C00162303600120E7E70021204642F82410EC
:10781C0098470020E0E70000024B01461868FFF78C
:10782C00D2BF00BF3001002038B50023064D0446FE
:10783C00084611462B60FFF72DFB431C02D12B6829
:10784C0003B1236038BD00BFD40E0020FFF72ABB64
:10785C0008B5FFF7B1FF0000F8B500BFF8BC08BCD5
:10786C009E467047F8B500BFF8BC08BC9E467047F2
:10787C000000000000000000B12100087D2100087C
:10788C000000000004000000080000000C000000D4
:10789C0013000000010000000500000009000000BA
:1078AC000D000000120000000200000006000000A5
:1078BC000A0000000E000000110000000300000090
:1078CC00070000000B0000000F000000100000007B
:1078DC00C0000000C1000000C3000000C200000096
:1078EC00C4000000C80000001E00000020000000C2
:1078FC00C9000000546F7074656E20536F66747706
:10790C006172650052415720484944204D616372B1
:10791C006F70616400424C41434B50494C4C5F4684
:10792C00313033434220437573746F6D20484944A2
:10793C0020436F6E66696700424C41434B50494C83
:10794C004C5F46313033434220437573746F6D2066
:10795C0048494420496E7465726661636500000095
:10796C000000000018000000000000008000000073
:10797C00580000000000000081000000980000008A
:10798C000000000001000000D80000000000000012
:10799C00010202030405060708090A0B0C0D0E0F61
:1079AC00101000000101000002020000040400009D
:1079BC0008080000101000002020000040400000CB
:1079CC008080000001000104020002040400040491
:1079DC00080008041000100420002004400040049B
:1079EC00800080040000000000000000010203047D
:1079FC00060708090B000000005C004000000000B6
:107A0C000C000000005C004000000000FFFFFFFFC6
:107A1C0000000000000000000300000000440040D3
:107A2C00100800000A000000003801401006000099
:107A3C001700000000380140100500001B0000007A
:107A4C000048004010000000FFFFFFFF0000000096
:107A5C00000000000200000000440040120800007A
:107A6C00090000000038014012060000160000005A
:107A7C0000380140120500001A00000000480040C8
:107A8C0012000000FFFFFFFF0000000000000000DC
:107A9C000000000000000040128000000001000007
:107AAC0000000040129000000100000000000040A7
:107ABC001212010001010000000000401210010030
:107ACC0002000000000000401292010002010000C0
